:100000000C942A000C943C000C943C000C943C0092
:100010000C943C000C943C000C943C000C94890023
:100020000C943C000C943C000C943C000C943C0060
:100030000C943C000C943C000C943C000C943C0050
:100040000C943C000C943C000C943C000C943C0040
:100050000C943C0011241FBECFE5D8E0DEBFCDBF1D
:1000600017E0A0E6B0E001C01D92AB36B107E1F7A2
:100070000E949D000C9422010C940000599A10BC1F
:100080008CE089B988E18AB986E880BD08955D9BD6
:10009000FECF8CB90895FC0180E006C090815D9B85
:1000A000FECF9CB98F5F31968617C0F30895969A5C
:1000B0005F9BFECF96988CB1089596B1906887703B
:1000C000982B96B987B1806687B9089537980895B7
:1000D00097B18F71892B87B9369A349BFECF84B143
:1000E00025B130E02F733070322F222790E0282B7B
:1000F000392BC901089590E49FBD9EB598609EBDBF
:100100009EB5982B9EBD89B7806189BF6BBD4ABDE6
:1001100008951F920F920FB60F9211248F93969A03
:1001200010926A071092690781E0809368078F91A7
:100130000F900FBE0F901F901895FF920F931F9373
:10014000CF93DF9381B3806F81BB599A10BC8CE051
:1001500089B988E18AB986E880BD86B1836886B9A5
:1001600087B1806687B910926A0710926907789400
:10017000C0E6D0E0FF24F39401E010E0809169072D
:1001800090916A07009739F10197C1F718C094B5AB
:1001900014BC87B187B9369A9883349BFECF85B15A
:1001A000898387B187B987B1876087B9369A349BCD
:1001B000FECF85B18A83239687B1887F87B987E090
:1001C000C836D80720F3969A10926A0710926907EA
:1001D000F0926807D3CF80916807882381F0E0E62A
:1001E000F0E005C080815D9BFECF8CB9319687E041
:1001F000E836F807B9F710926807C0E6D0E0F8943F
:10020000969A94980E9457007894F5BC882321F41C
:1002100084E06CE44AE403C084E068E945E90E94B4
:100220007B0010936A070093690796988CB59DB57B
:100230002CB53DB5282739273DBD2CBD80B78D7F16
:0802400080BF9CCFF894FFCFB2
:00000001FF
