:100000000C942A000C943C000C943C000C943C0092
:100010000C943C000C943C000C943C000C94890023
:100020000C943C000C943C000C943C000C943C0060
:100030000C943C000C943C000C943C000C943C0050
:100040000C943C000C943C000C943C000C943C0040
:100050000C943C0011241FBECFE5D8E0DEBFCDBF1D
:1000600017E0A0E6B0E001C01D92AB36B107E1F7A2
:100070000E942E010C9479010C940000599A10BC36
:100080008CE089B988E18AB986E880BD08955D9BD6
:10009000FECF8CB90895FC0180E006C090815D9B85
:1000A000FECF9CB98F5F31968617C0F30895969A5C
:1000B0005F9BFECF96988CB1089596B1906887703B
:1000C000982B96B987B1806687B9089537980895B7
:1000D00097B18F71892B87B9369A349BFECF84B143
:1000E00025B130E02F733070322F222790E0282B7B
:1000F000392BC901089590E49FBD9EB598609EBDBF
:100100009EB5982B9EBD89B7806189BF6BBD4ABDE6
:1001100008951F920F920FB60F9211248F93969A03
:1001200010926A071092690781E0809360008F91B6
:100130000F900FBE0F901F901895969886B1826809
:1001400086B987B1806687B92CB53DB58CB59DB5AC
:10015000822793279DBD8CBD80B78D7F80BFE1E650
:10016000F0E018C094B514BC87B187B9369A908373
:10017000349BFECF85B1818387B187B987B1876012
:1001800087B9369A349BFECF85B18283339687B187
:10019000887F87B987E0E936F80721F7969A1092A9
:1001A0006A0710926907E1E6F0E005C080815D9B77
:1001B000FECF8CB9319687E0E936F807B9F7089594
:1001C000969886B1826886B987B1806687B92CB562
:1001D0003DB58CB59DB5822793279DBD8CBD80B75D
:1001E0008D7F80BF1092600029C087B187B9369A91
:1001F00084B5349BFECF8093610084B1809362000C
:1002000085B183708093630087B187B9389A369A35
:1002100024B594B584B5892784BD349BFECF209343
:10022000640084B18093650085B18370809366001B
:1002300081E690E066E00E944B0038988091600073
:10024000882399F2F89480E090E85D9BFECF9CB9FA
:100250008F5F8630D1F7109260000895DF92EF92A1
:10026000FF920F931F93CF93DF93F89481B3806F26
:1002700081BB599A10BC8CE089B988E18AB986E8BB
:1002800080BD86B1826886B987B1806687B91092D1
:100290006A071092690721E0E22EF12CDD24D39445
:1002A000C2E0D0E005E03798969A94980E945700F3
:1002B000182F0E945700112341F0F0926A07E09234
:1002C0006907D5BC0E949D00EECFD0936A07C0930A
:1002D0006907789405BD882321F484E06CE44AE43E
:1002E00003C084E068E945E90E947B000E94E000C9
:0602F000DACFF894FFCF05
:00000001FF
