:100000000C942A000C943C000C943C000C943C0092
:100010000C943C000C943C000C943C000C948A0022
:100020000C943C000C943C000C943C000C943C0060
:100030000C943C000C943C000C943C000C943C0050
:100040000C943C000C943C000C943C000C943C0040
:100050000C943C0011241FBECFE5D8E0DEBFCDBF1D
:1000600020E0A0E6B0E001C01D92A73CB207E1F796
:100070000E949E000C9411010C940000599A10BC2F
:1000800086E089B988E18AB986E880BD08955D9BDC
:10009000FECF8CB908950F931F93CF93DF93EC019C
:1000A0008C01060F111DC017D10721F089910E9404
:1000B0004700F9CFDF91CF911F910F910895969A44
:1000C0005F9BFECF96988CB1089596B1877090682B
:1000D000892B86B980E487B908953798089597B138
:1000E0008F71982B97B9369A349BFECF84B125B186
:1000F0002F7390E0922B089590E49FBD9EB5986079
:100100009EBD9EB5892B8EBD89B7806189BF6BBDB1
:100110004ABD08951F920F920FB60F9211248F932C
:10012000969A1092C6001092C50081E08093C40098
:100130008F910F900FBE0F901F90189581B3806F15
:1001400081BB86E090E00E943E0082E00E94650054
:100150001092C6001092C500789482E0F82E01E05B
:1001600010E08091C5009091C600009761F1019761
:10017000C1F787B187B9369A84B5349BFECF809397
:10018000600084B18093610085B1837080936200C8
:1001900087B187B9389A369A94B524B584B5822741
:1001A00084BD349BFECF9093630084B18093640040
:1001B00085B183708093650066E080E690E00E94E0
:1001C0004B003898CECF8091C40081110CC0F894B8
:1001D000969A94980E945F007894F5BC81110BC0A8
:1001E0004AE46CE40AC0C6E0D0E080E80E94470020
:1001F0002197D9F7ECCF45E968E984E00E947C00BB
:100200001093C6000093C50096982CB53DB58CB5EB
:100210009DB5822793279DBD8CBD80B78D7F80BF04
:06022000A0CFF894FFCF0F
:00000001FF
