:100000000C942A000C943C000C943C000C943C0092
:100010000C943C000C943C000C943C000C948B0021
:100020000C943C000C943C000C943C000C943C0060
:100030000C943C000C943C000C943C000C943C0050
:100040000C943C000C943C000C943C000C943C0040
:100050000C943C0011241FBECFE5D8E0DEBFCDBF1D
:1000600027E0A0E6B0E001C01D92AB36B207E1F791
:100070000E949F000C945F010C940000599A10BCE0
:100080008CE089B988E18AB986E880BD08955D9BD6
:10009000FECF8CB908950F931F93CF93DF93EC019C
:1000A0008C01060F111DC017D10721F089910E9404
:1000B0004700F9CFDF91CF911F910F910895969A44
:1000C0005F9BFECF96988CB1089596B1877090682B
:1000D000892B86B987B1806687B9089537980895C6
:1000E00097B18F71982B97B9369A349BFECF84B114
:1000F00025B12F7390E0922B089590E49FBD9EB59B
:1001000098609EBD9EB5892B8EBD89B7806189BFE1
:100110006BBD4ABD08951F920F920FB60F92112426
:100120008F93969A10926A071092690781E08093E4
:1001300068078F910F900FBE0F901F901895F8943D
:1001400081B3806F81BB86E090E00E943E0082E038
:100150000E94650010926A0710926907C2E0D0E021
:1001600025E0D22E01E010E0CC24C39480916907F1
:1001700090916A078130910571F108F460C002978F
:10018000A9F787B187B9369A84B5349BFECF80939F
:10019000600084B18093610085B1837080936200B8
:1001A00087B187B9389A369A94B524B584B5822731
:1001B00084BD349BFECF9093630084B18093640030
:1001C00085B183708093650066E080E690E00E94D0
:1001D0004B003898CBCFE0E6F0E084B514BC97B183
:1001E00097B9369A8083349BFECF85B1818387B1DE
:1001F00087B987B1876087B9369A349BFECF85B1BE
:100200008283339687B1887F87B987E0E836F8071D
:1002100021F7969A10926A071092690790E6E92EE4
:1002200090E0F92EF70181917F010E944700F8E6E6
:10023000EF16F7E0FF06B1F71092680797CF8091AD
:10024000680781110FC0F8940E946E00969A9498E6
:100250000E945F00882389F010936A070093690762
:10026000C5BC1DC086E0E82EF12C80E80E94470046
:1002700081E0E81AF108C9F7E6CFD0936A07C09386
:1002800069077894D5BC0E945F00811103C04AE4DD
:100290006CE402C045E968E984E00E947D0096981C
:1002A00082E00E9465002CB53DB58CB59DB58227D6
:1002B00093279DBD8CBD80B78D7F80BF57CFF894AD
:0202C000FFCF6E
:00000001FF
