:100000000C942A000C943C000C943C000C943C0092
:100010000C943C000C943C000C943C000C948F001D
:100020000C943C000C943C000C943C000C943C0060
:100030000C943C000C943C000C943C000C943C0050
:100040000C943C000C943C000C943C000C943C0040
:100050000C943C0011241FBECFE5D8E0DEBFCDBF1D
:1000600020E0A0E6B0E001C01D92A73CB207E1F796
:100070000E94A3000C9411010C940000599A10BC2A
:100080008CE089B988E18AB986E880BD08955D9BD6
:10009000FECF8CB908950F931F93CF93DF93EC019C
:1000A0008C01060F111DC017D10721F089910E9404
:1000B0004700F9CFDF91CF911F910F910895969A44
:1000C0005F9BFECF96988CB1089596B1877090682B
:1000D000892B86B980E487B908953798089597B138
:1000E0008F71982B97B9369A349BFECF84B125B186
:1000F0002F7390E0922B089590E49FBD9EB5986079
:100100009EBD9EB5892B8EBD89B7806189BF6BBDB1
:100110004ABD089595B58770982B95BD08951F9297
:100120000F920FB60F9211248F93969A1092C600D9
:100130001092C50081E08093C4008F910F900FBE94
:100140000F901F90189581B3806F81BB86E090E07F
:100150000E943E0083E00E9465001092C60010924B
:10016000C500789401E010E08091C5009091C60030
:10017000009759F10197C1F787B187B9369A84B5CD
:10018000349BFECF8093600084B18093610085B181
:1001900083708093620087B187B9389A369A94B594
:1001A00080B78D7F80BF349BFECF9093630084B176
:1001B0008093640085B183708093650066E080E67B
:1001C00090E00E944B003898CFCF8091C4008111FD
:1001D0000FC0F894969A94980E945F00C82F789464
:1001E00085E00E948A00C1110BC04AE46CE40AC099
:1001F000C6E0D0E080E80E9447002197D9F7E9CF18
:1002000045E968E984E00E947C001093C6000093F1
:10021000C500969880B78E7F80BF80B78D7F80BFE6
:06022000A3CFF894FFCF0C
:00000001FF
