:100000000C942A000C943C000C943C000C943C0092
:100010000C943C000C943C000C943C000C94880024
:100020000C943C000C943C000C943C000C943C0060
:100030000C943C000C943C000C943C000C943C0050
:100040000C943C000C943C000C943C000C943C0040
:100050000C943C0011241FBECFE5D8E0DEBFCDBF1D
:1000600010E0A0E6B0E001C01D92A73CB107E1F7A7
:100070000E949C000C941B010C940000599A10BC27
:100080008CE089B988E18AB986E880BD08955D9BD6
:10009000FECF8CB90895FC0180E006C090815D9B85
:1000A000FECF9CB98F5F31968617C0F30895969A5C
:1000B0005F9BFECF96988CB1089596B1906887703B
:1000C000982B96B980E487B908953798089597B129
:1000D0008F71892B87B9369A349BFECF84B125B1B5
:1000E00030E02F733070322F222790E0282B392BED
:1000F000C901089590E49FBD9EB598609EBD9EB5D0
:10010000982B9EBD89B7806189BF6BBD4ABD08959C
:100110001F920F920FB60F9211248F93969A1092FE
:10012000C6001092C50081E08093C4008F910F90AB
:100130000FBE0F901F9018950F931F93CF93DF93CF
:1001400081B3806F81BB599A10BC8CE089B988E17A
:100150008AB986E880BD86B1826886B980E487B9AD
:100160001092C6001092C500789402E0C1E0D0E081
:1001700010E88091C5009091C600009761F1019749
:10018000C1F787B187B9369A84B5349BFECF809387
:10019000600084B18093610085B1837080936200B8
:1001A00087B187B9389A369A24B594B584B589272A
:1001B00084BD349BFECF2093630084B180936400A0
:1001C00085B183708093650080E690E066E00E94D0
:1001D0004B003898CECF8091C400882349F080E04E
:1001E00090E05D9BFECF1CB9019686309105C9F762
:1001F000F894969A94980E945700789405BD8823A5
:1002000021F484E06CE44AE403C084E068E945E951
:100210000E947A00D093C600C093C50096988CB512
:100220009DB52CB53DB5282739273DBD2CBD80B7E0
:0A0230008D7F80BF9ECFF894FFCFB2
:00000001FF
