:100000000C942A000C943C000C943C000C943C0092
:100010000C943C000C943C000C943C000C943C0070
:100020000C943C000C943C000C943C000C943C0060
:100030000C943C000C943C000C943C000C943C0050
:100040000C943C000C943C000C943C000C943C0040
:100050000C943C0011241FBECFE5D8E0DEBFCDBF1D
:1000600020E0A0E6B0E001C01D92A436B207E1F79F
:100070000E947C000C94AC000C940000599A10BCB7
:100080008CE089B988E18AB986E880BD08955D9BD6
:10009000FECF8CB908950F931F93CF93DF93EC019C
:1000A0008C01060F111DC017D10721F089910E9404
:1000B0004700F9CFDF91CF911F910F910895969A44
:1000C0005F9BFECF96988CB1089596B1877090682B
:1000D000892B86B980E487B908953798089597B138
:1000E0008F71982B97B9369A349BFECF84B125B186
:1000F0002F7390E0922B089581B3806581BB86E0D9
:1001000090E00E943E0083E00E9465000E945F0034
:10011000C0E182B38C2782BB87B187B9369A349B02
:10012000FECF84B18093600085B1837080936100BD
:1001300087B187B9389A369A349BFECF84B18093C1
:10014000620085B183708093630064E080E690E094
:0C0150000E944B003898DDCFF894FFCFE0
:00000001FF
